:020000040800F2
:1000000000DA00203D0200088D090008850900087B
:1000100089090008A5080008BB11000800000000BD
:10002000000000000000000000000000250E000895
:10003000A908000800000000E90A0008150F0008E0
:10004000570200085702000857020008570200082C
:10005000570200085702000857020008570200081C
:10006000570200085702000857020008570200080C
:1000700057020008570200085702000857020008FC
:1000800057020008570200085702000857020008EC
:1000900057020008570200085702000857020008DC
:1000A00057020008570200085702000857020008CC
:1000B00057020008570200085702000857020008BC
:1000C00057020008570200085702000857020008AC
:1000D0005702000857020008570200088D0F000859
:1000E000570200085702000857020008570200088C
:1000F000570200085702000857020008570200087C
:10010000570200085702000857020008570200086B
:10011000570200085702000857020008570200085B
:10012000570200085702000857020008570200084B
:10013000570200085702000857020008570200083B
:10014000570200085702000857020008570200082B
:10015000570200085702000857020008570200081B
:10016000570200085702000857020008570200080B
:1001700057020008570200085702000857020008FB
:10018000570200085702000800F002F800F047F894
:100190000AA090E8000C82448344AAF10107DA45E2
:1001A00001D100F03CF8AFF2090EBAE80F0013F0ED
:1001B000010F18BFFB1A43F001031847CCAE000033
:1001C000ECAE0000103A24BF78C878C1FAD85207C4
:1001D00024BF30C830C144BF04680C6070470000C1
:1001E0000023002400250026103A28BF78C1FBD840
:1001F000520728BF30C148BF0B607047642900F028
:100200009B80782900F0D480732900F0B48200200C
:1002100070471FB50AF04EFE1FBD10B510BD00F0AF
:100220000FFB1146FFF7F5FF03F0C6FF00F02DFBB3
:1002300003B4FFF7F2FF03BC00F0C8FF0948804792
:1002400009480047FEE7FEE7FEE7FEE7FEE7FEE7B8
:10025000FEE7FEE7FEE7FEE704480549054A064BD0
:1002600070470000250F00088901000800D4002015
:1002700000DA002000D6002000D6002070470000E1
:100280000FB4044910B503AA029800F079FA10BC23
:100290005DF814FB0C00002070B504468569006809
:1002A000C10601D5302600E02026C00707D070BD6A
:1002B000D4E9012130469047206A401C20626D1E1F
:1002C000F6D570BD70B5044685690078C00707D1C2
:1002D00070BDD4E9012120209047206A401C206293
:1002E0006D1EF6D570BD70B50C460546012A05D0C9
:1002F0002878800600D5EA69002302E0012305E0A2
:100300005B1C934202D2E05C0028F9D1A869E61890
:10031000C01AA861286A184428622846FFF7BCFF63
:1003200004E0D5E9012114F8010B9047B442F8D359
:100330002846FFF7C7FF70BD2DE9F04106460024AF
:1003400010687529314616A510D0AFF3008000283B
:1003500002DA404213A507E031688A0701D512A5E9
:1003600002E0490704D511A5012401E0AFF30080A4
:1003700000210A2206F1240709E0B0FBF2FCB0FBE1
:10038000F2F302FB1C00303078541846491C002858
:10039000F3D123462A463046BDE8F04100F080B94B
:1003A000000000002D0000002B00000020000000D5
:1003B00070B504460D4621461068AFF300802188D1
:1003C000090502D50F4A7A4402E00E4A7A440E32F9
:1003D000002104F1240305E000F00F060009965DFA
:1003E0005E54491C0028F7D120780023000704D56B
:1003F000702D02D009B1022311322046BDE87040B1
:1004000000F04EB982AB00002DE9F0474FF0000A32
:1004100089460446C0F820A02046E16888470028A5
:1004200076D0252806D0D4E901219047206A401CC7
:100430002062F1E7E168204600268847C4F81CA046
:1004400005460027C4F818A02A2D09D0284600F038
:10045000B6FE38B304EB8708303DC8F8185019E0F1
:1004600059F8041B204604EB87029161E168884734
:10047000012F054618D1E069002820DA26F0200671
:100480001DE0D8F8180000EB800005EB4000303884
:10049000C8F818002046E1688847054600F08FFE3E
:1004A0000028EED1012F0AD02E2D08D12046E16878
:1004B00088477F1C0546022F46F02006C4DBA06952
:1004C000002803DA404246F00106A061F00701D09F
:1004D00026F010066C2D0AD0682D08D04C2D39D08E
:1004E0006A2D35D0742D35D07A2D33D016E0E168E1
:1004F0002F4620468847B84205460AD16C2F27D0A0
:100500004FF48060E168064320468847054605E0D1
:1005100027E06C2F1AD04FF4807006430DB3A5F17D
:100520004100192802D8203546F400664A4629467B
:10053000204626604E46FFF761FE80B101280BD0B1
:10054000F61D26F0070000F1080965E74020E4E702
:100550008020D7E70020D5E706F104095CE72846AC
:1005600061E7206ABDE8F08740EA010310B59B0708
:100570000FD1042A0DD310C808C9121F9C42F8D00D
:1005800020BA19BA884201D9012010BD4FF0FF30BE
:1005900010BD1AB1D30703D0521C07E0002010BDD4
:1005A00010F8013B11F8014B1B1B07D110F8013B60
:1005B00011F8014B1B1B01D1921EF1D1184610BD41
:1005C000032A40F2308010F0030C00F0158011F87F
:1005D000013BBCF1020F624498BF11F801CB00F857
:1005E000013B38BF11F8013BA2F1040298BF00F8AB
:1005F00001CB38BF00F8013B11F0030300F0D280BB
:10060000083AC0F0088051F8043B083A51F804CB8E
:10061000A0E80810F5E7121D5CBF51F8043B40F854
:10062000043BAFF30080D20724BF11F8013B11F85F
:1006300001CB48BF11F8012B24BF00F8013B00F8A3
:1006400001CB48BF00F8012B70474FF0000200B506
:10065000134694469646203922BFA0E80C50A0E8E5
:100660000C50B1F12001BFF4F7AF090728BFA0E893
:100670000C5048BF0CC05DF804EB890028BF40F85F
:10068000042B08BF704748BF20F8022B11F0804FA1
:1006900018BF00F8012B70477047704770477047CC
:1006A0002DE9F0470D4699469246044600F124088C
:1006B0000168880604D5E06921F01001216000E09E
:1006C0000120A84201DD471B00E00027A1697A193B
:1006D00002EB0900081AA0612078C00602D4204667
:1006E000FFF7DAFD002608E0D4E901211AF8060038
:1006F0009047206A401C761C20624E45F4DB20782F
:10070000C0060AD52046FFF7C7FD06E0D4E901215F
:1007100030209047206A401C2062381EA7F1010754
:10072000F4DC07E0D4E9012118F805009047206ABD
:10073000401C2062281EA5F10105F3DC2046FFF7CE
:10074000C1FD2078000602D50220BDE8F087012017
:10075000FBE710B5436913B1AFF3008001E0FFF789
:10076000C2FD012010BD127800F124010A700022A0
:100770004A700122EDE711684FF0FF32E9E700000F
:10078000074B70B50D467B4400F043F804462846FD
:1007900000F052F810B14FF0FF3070BD204670BD30
:1007A0006B20000010B5203AC0F00B80B1E8185063
:1007B000203AA0E81850B1E81850A0E81850BFF44B
:1007C000F5AF5FEA027C24BFB1E81850A0E81850EA
:1007D00044BF18C918C0BDE810405FEA827C24BF3E
:1007E00051F8043B40F8043B08BF7047D20728BFCC
:1007F00031F8023B48BF11F8012B28BF20F8023B1B
:1008000048BF00F8012B704701694A1C0261087853
:10081000704700B58FB0CDE9013100210591054940
:100820007944CDE9031011466846FFF7EDFD0FB09E
:1008300000BD0000E5FFFFFF007B00F08000704777
:10084000754600F02BF8AE4605006946534620F089
:100850000700854618B020B5FFF7FEFCBDE8204034
:100860004FF000064FF000074FF000084FF0000B6C
:1008700021F00701AC46ACE8C009ACE8C009ACE81F
:10088000C009ACE8C0098D46704710B50446AFF307
:1008900000802046BDE81040FFF7CABC0048704702
:1008A0009CD3002000BFFEE77047F0B50A46002148
:1008B0000023002400BF3DE0012505FA01F315687F
:1008C00005EA03049C4234D105684F000326BE406C
:1008D000B543056015794E00B5400668354305609F
:1008E0001579012D02D01579022D16D185684F009A
:1008F0000326BE40B543856055794E00B5408668F5
:1009000035438560456801268E40B543456045689E
:1009100096798E40B6B235434560C5684F000326D0
:10092000BE40B543C560D5794E00B540C668354375
:10093000C560491C1029BFD3F0BDF0B500230024C9
:100940004D07ED0E02FA05F3CE1000F1200555F823
:1009500026504E07F70E0F26BE40B543CF1000F1CC
:10096000200646F82750CE1000F1200555F82650F5
:1009700045EA0304CE1000F1200545F82640F0BDFD
:100980000183704700BFFEE700BFFEE7704700002D
:1009900070B5002100230F22C4781CB3174C2468C3
:1009A00004F4E064C4F5E064C4F30721C1F1040475
:1009B000E3B20A4144789C40E1B284781440214378
:1009C0000C07210E0E4C05786155047804F01F05C4
:1009D0000124AC4005786D11AD0005F1E025C5F8A6
:1009E000004109E0047804F01F050124AC40054DE6
:1009F0000678761145F8264070BD00000CED00E049
:100A000000E400E080E100E002490143024A116095
:100A1000704700000000FA050CED00E02DE9F04100
:100A200080460026002500270024164940F2DC50AD
:100A300000F0E2FC054615B90020BDE8F081A9B23E
:100A40000022032004F0C4FA06463EB900BF29463E
:100A50000DA0FFF715FC00BF0020EEE734460BE0C9
:100A60006289084BD9196068FFF7AAFD60890744BD
:100A70002468AF4200D301E0002CF1D100BF304622
:100A8000DBE70000C0CD00205061636B65745265E8
:100A900063656976653A20706275665F616C6C6F3C
:100AA00063206661696C202C6C656E3D25386C6432
:100AB0000A09000070B5064600240025344608E007
:100AC0006289084B58196168FFF77AFD608905440F
:100AD0002468002CF4D10349284600F0EDFC0020E6
:100AE00070BD0000E4C700207047000029B1064A2D
:100AF00012680243044B1A6004E0034A12688243FE
:100B0000014B1A60704700003038024029B1064A94
:100B100012680243044B1A6004E0034A12688243DD
:100B2000014B1A60704700004038024029B1064A64
:100B300012680243044B1A6004E0034A12688243BD
:100B4000014B1A60704700004438024029B1064A40
:100B500012680243044B1A6004E0034A126882439D
:100B6000014B1A607047000024380240F0B50021A4
:100B700000220024022500260223324F3F6807F09E
:100B80000C0121B1042905D0082937D105E02E4FE9
:100B9000076036E02D4F076033E02A4F3F1F3F6864
:100BA000C7F38056274F3F1F3F6807F03F036EB1E2
:100BB000264FB7FBF3F7DFF88CC0ACF1040CDCF880
:100BC00000C0CCF3881C07FB0CF40CE01E4FB7FBF5
:100BD000F3F7DFF870C0ACF1040CDCF800C0CCF324
:100BE000881C07FB0CF4174F3F1F3F68C7F30147F2
:100BF0007F1C7D00B4FBF5F7076002E0124F076031
:100C000000BF00BF0F4F3F6807F0F0010909104F08
:100C10007A5C0768D74047600A4F3F6807F4E051A5
:100C2000890A0B4F7A5C4768D7408760054F3F6859
:100C300007F46041490B064F7A5C4768D740C760AC
:100C4000F0BD0000083802400024F40000127A00D1
:100C50001200002000B587B001211120FFF746FFE8
:100C600001210803FFF762FFE020059002208DF8C4
:100C7000180000208DF81A0003208DF819000120BB
:100C80008DF81B0005A93048FFF70FFE052211461D
:100C90002D48FFF752FE052206212B48FFF74DFE97
:100CA000052207212848FFF748FE0620059001206D
:100CB0008DF8180000208DF81A0003208DF8190017
:100CC00001208DF81B0005A91F48FFF7EEFD082045
:100CD000059005A91D48FFF7E8FD08211B48FFF70F
:100CE0004FFE01210803FFF731FF00214FF4805030
:100CF000FFF72CFF0021164800F05CF80020ADF84B
:100D000000004FF48270ADF802000020ADF804003E
:100D1000ADF80600ADF808004FF40070ADF80A0019
:100D20003820ADF80C000020ADF80E000720ADF81B
:100D300010006946064800F057F80121044800F009
:100D400039F807B000BD000000000240001002406A
:100D50000030014010B5044600BF02210A4800F0EF
:100D600035F80028F9D02146074800F03BF800BFCD
:100D70000121054800F02AF80028F9D0024800F0C7
:100D80002EF8C0B210BD00000030014010B504467E
:100D9000074800884FF6C771084005490880084693
:100DA0000088204308800121014800F003F810BDAD
:100DB0000030014021B1028842F04002028004E08C
:100DC00002884FF6BF731A40028070470246002027
:100DD00013890B400BB1012000E000207047014651
:100DE000888970478181704710B50022028802F41B
:100DF00041520B884C8823438C882343CC8823435F
:100E00000C8923434C8923438C892343CC89234376
:100E10001A430280838B4FF2FF74234083830B8A33
:100E2000038210BD704700000CB5002001900090B7
:100E30003448006840F480303249086000BF3148CF
:100E4000006800F4003000900198401C0190009868
:100E500018B90198B0F5A04FF1D12A48006800F404
:100E6000003010B10120009001E0002000900098B7
:100E7000012846D123484030006840F08050214985
:100E8000403108602048006840F440401E49086036
:100E90001C48083000681B49083108600846006893
:100EA00040F4004008600846006840F4A050086024
:100EB0001648091F0860081F006840F08070091F6D
:100EC000086000BF0F48006800F000700028F9D0EB
:100ED00040F205700E4908600A480830006820F0AA
:100EE00003000849083108600846006840F0020025
:100EF000086000BF03480830006800F00C000828B4
:100F0000F8D10CBD00380240007000400854400782
:100F1000003C0240024800681430014908607047F4
:100F20000000002010B51548006840F47000134917
:100F300008601348006840F0010011490860002073
:100F40000F49083108600E4800680E4908400C49F6
:100F500008600D48091D0860081F006820F4802003
:100F6000091F0860002006490C310860FFF75CFF8C
:100F70004FF0006001498039086010BD88ED00E045
:100F800000380240FFFFF6FE1030002410B540F29A
:100F900025511D4800F053F810B31B4800F008F924
:100FA000C4B21A48008800F40040C8B91748008845
:100FB00000F4804060B10A2C03D00020134908805F
:100FC00020E01248008840F400401049088019E0F1
:100FD0000D2C06D10D48008840F480400B49088054
:100FE00010E00A480088C0F30D0009490C54074876
:100FF0000088401C0549088008460088C72801DD94
:101000000020088010BD00000048004010000020B3
:10101000EC00002001F40072B2F5007F00D100BFA7
:10102000CA430280704721B1828942F40052828112
:1010300004E082894DF6FF731A408281704770B5D3
:101040000246002400230025002040F66A16B14223
:1010500000D100BFC1F3421501F01F03012606FABB
:1010600003F3012D02D19689334006E0022D02D10F
:10107000168A334001E0968A33400C12012606FAA4
:1010800004F41688344013B10CB1012000E00020B4
:1010900070BDF0B50346002400260025002040F670
:1010A0006A17B94200D100BF1846C1F3421401F0DB
:1010B0001F06012707FA06F5012C01D10C3004E0C8
:1010C000022C01D1103000E014301AB107682F4310
:1010D000076002E00768AF430760F0BD2DE9FF47F6
:1010E00005460E460024A14600BFA046B08900B1C7
:1010F00000BF2C8A24F44054F08804432C82AC892D
:1011000041F20C608443B0883189084371890843F7
:101110000443AC81AC8A24F44074B0890443AC82AB
:101120006846FFF723FD2048854202D01F488542CC
:1011300002D1DDF80C9001E0DDF80890A88900F4F8
:10114000004040B109EBC90000EB091031684900CB
:10115000B0FBF1F707E009EBC90000EB09103168BB
:101160008900B0FBF1F76420B7FBF0F0040120091F
:10117000642101FB1078A88900F4004040B13220BE
:1011800000EBC800B0FBF1F000F00700044308E0FA
:10119000322000EB08106421B0FBF1F000F00F00EA
:1011A00004432C81BDE8FF8700100140001401407A
:1011B00001468888C0F30800704700BFFEE730385A
:1011C0000A2801D2012070470020704700BF7047F5
:1011D00010B5044601F0F8F80022034941F28830C6
:1011E00004F0BAFF10BD0000D111000870B504462C
:1011F000012067490860FF220021104600F036FAFE
:1012000000BF1D2000F0AFF900F001000028F8D069
:101210000020604908600021082000F003FA002146
:10122000092000F0FFF900210C2000F0FBF900215B
:101230000D2000F0F7F9FE210A2000F0F3F9192142
:101240000B2000F0EFF9FF21042000F0EBF9192149
:10125000052000F0E7F9FF21062000F0E3F91F2147
:10126000072000F0DFF9B021382000F0DBF93F2142
:10127000282000F0D7F93021292000F0D3F9F921F6
:10128000302000F0CFF9F721312000F0CBF90D210B
:10129000C02000F0C7F90021C12000F0C3F93322BB
:1012A000C221802000F0E2F91221C62000F0BAF934
:1012B0000C21C72000F0B6F91521C42000F0B2F9C6
:1012C000DC21CA2000F0AEF90521CB2000F0AAF9FC
:1012D0002178E42000F0A6F96178E52000F0A2F979
:1012E000A178E22000F09EF9E178E32000F09AF97D
:1012F0002179E02000F096F96179E12000F092F97F
:10130000E42000F030F90546294623A0FEF7B8FF97
:10131000E52000F028F90546294623A0FEF7B0FF96
:10132000E22000F020F90546294623A0FEF7A8FF99
:10133000E32000F018F90546294623A0FEF7A0FF98
:10134000E02000F010F90546294623A0FEF798FF9B
:10135000E12000F008F90546294623A0FEF790FF9A
:101360004FF48071002000F0E5F84FF480711020F8
:1013700000F0E0F81F2000F03BF9C1221B21802083
:1013800000F074F904221F21802000F06FF970BD75
:1013900084024042080000204D4141445235203D26
:1013A0002025780D0A0000004D4141445234203D73
:1013B0002025780D0A0000004D4141445233203D64
:1013C0002025780D0A0000004D4141445232203D55
:1013D0002025780D0A0000004D4141445231203D46
:1013E0002025780D0A0000004D4141445230203D37
:1013F0002025780D0A0000002DE9F04105460F4632
:10140000392000F0B0F810B90020BDE8F08129487B
:101410000178002000F006F926480088C0F3072173
:10142000012000F0FFF800213A2000F0C1F8214926
:10143000086000213A2000F0BBF81E49096841EA23
:1014400000201C49086000213A2000F0B1F8044651
:1014500000213A2000F0ACF844EA0024241F0021C7
:101460003A2000F0A5F8064600213A2000F0A0F846
:1014700046EA0026681EA04200D26C1E06F08000DC
:1014800008B9002403E03946204600F077F80948FF
:1014900001780C2000F0C6F806480088C0F3072148
:1014A0000D2000F0BFF840221E21802000F0DEF861
:1014B0002046AAE70800002070B504460D4600BF8C
:1014C0001F2000F050F800F008000028F8D1FF219C
:1014D000022000F0A7F81921032000F0A3F8FF2054
:1014E0002044C1B2062000F09DF841F6FF102044D0
:1014F000C0F30721072000F095F8002211467A205A
:1015000000F0B4F82946204600F098F808221F2180
:10151000802000F0ABF81C2000F025F800F002005D
:1015200038B11F2000F064F808221F21A02000F02D
:101530009DF870BD70B505460C462946D42000F0D4
:1015400071F8E1B2D62000F06DF8C4F30721D7207E
:1015500000F068F800BFEA2000F005F800F0010094
:101560000028F8D170BD10B50446204600F040F8C0
:101570002146002000F01CF810BD000070B50546A3
:101580000C460020094908603A20FFF7E3FB05E01C
:101590006D1E0020FFF7DEFB2070641C002DF7D1CC
:1015A0000020207001200149086070BD8402404283
:1015B00070B505460C46002600200C49086004F072
:1015C0001F0040EA05063046FFF7C4FBFF20FFF787
:1015D000C1FB064604F0800018B1FF20FFF7BAFBFC
:1015E0000646012001490860304670BD8402404231
:1015F00010B5044604F060000949097888420ED00D
:1016000003221F21A02000F031F8C4F341121F2152
:10161000802000F02BF804F060000149087010BD34
:101620000400002070B504460D462046FFF7E0FF99
:101630002A462146402000F019F870BD70B50446D6
:101640000D460020084908607A20FFF783FB04E07C
:10165000641E2878FFF77EFB6D1C002CF8D101205A
:101660000149086070BD0000840240422DE9F0414C
:1016700004460D461646002700200949086005F07B
:101680001F0040EA04073846FFF764FB3746384638
:10169000FFF760FB01200349C1F88402BDE8F08137
:1016A000840240420000404210B5044604F00701A5
:1016B0007520FFF7B7FF10BD2DE9FC4705468846AA
:1016C000164600BF55B900BF58A340F2BB2260A127
:1016D00063A0FEF7D5FD00BFBDE8FC8700BF7089A1
:1016E0002A280EDA6948408C401C81B26748418440
:1016F000C08B401C81B26548C183304604F052F96A
:10170000EAE7776807F10E042088B0F5807F08D1FA
:101710002079062805D16079042802D1608808283C
:101720000ED05A48008D401C81B258480185C08BAC
:10173000401C81B25548C183304604F033F9CBE7F1
:101740005248408B401C81B250484183D4F80E006F
:101750000190A0690090281D08B1686810B94FF089
:10176000000907E000986968884201D1012000E083
:1017700000208146B9F1000F01D0012000E00220D5
:10178000034604F1080201A9284600F063FEE08840
:10179000B0F5807F03D0B0F5007F3AD138E0B9F1E1
:1017A000000F33D0022002F08BFCE080D4F80E0052
:1017B000A0616868C4F80E0000BF95F822000628F2
:1017C00008D000BF19A340F21132314924A0FEF71E
:1017D00057FD00BF00BFA068C4F81200A089E082D6
:1017E000A0683860A089B880D8F80000A060B8F878
:1017F0000400A081D8F80000C7F80600B8F804007B
:10180000788131462846AA69904700E000BF07E08A
:1018100006E01E48808D401C81B21C48818500BFB7
:1018200000BF304604F0BEF800BF55E72E2E5C6CBA
:101830007769702D312E342E315C7372635C6E6566
:101840007469665C6574686172702E6300000000E4
:101850006E6574696620213D204E554C4C00000099
:10186000417373657274696F6E202225732220663E
:1018700061696C6564206174206C696E6520256403
:1018800020696E2025730D0A00000000F4C50020B9
:1018900044B000082DE9FE4F064688464FF00A097D
:1018A000CA460A270024002002900190BB460090FF
:1018B00000BF6BE004EB84006F4901EB8000857C86
:1018C0000A2F02D10DB967B25EE0002D5CD000BFD7
:1018D000012D0AD0022D08DA00BF68A340F22B12B6
:1018E0006FA17FA0FEF7CCFC00BF00BF5EB104EB90
:1018F0008401614A02EB810130684968884202D163
:1019000060B2BDE8FE8F012D2AD104EB84005A4954
:1019100051F8200088B104EB840001EB8000C17C09
:101920000098814230DB4FFA84FB04EB840052497B
:1019300001EB8000C07C009026E004EB84004E495F
:1019400001EB8000C17C029881421DDB4FFA84F9D3
:1019500004EB8400484901EB8000C07C029013E056
:10196000022D11DB04EB8400434901EB8000C17CB4
:101970000198814208DB4FFA84FA04EB84003E4967
:1019800001EB8000C07C0190601CC4B20A2C91DB8A
:1019900008F0020020B90A2F05D108F0010010B9A3
:1019A0004FF0FF30ADE70A2F01DAFCB234E0BAF1B4
:1019B0000A0F12DA0AF0FF0400BF04EB84002E497C
:1019C00051F8200040B100BF2CA340F271124FA18A
:1019D00043A0FEF755FC00BF0EE0B9F10A0F02DA92
:1019E00009F0FF0408E0BBF10A0F02DA0BF0FF0474
:1019F00002E04FF0FF3084E700BF0A2C08DB00BF95
:101A00001EA340F2831247A135A0FEF739FC00BFA8
:101A100000BF204600F0A6F800BF0A2C08DB00BF7C
:101A200016A340F287123FA12DA0FEF729FC00BFAC
:101A300000BF00BF04EB84000F4901EB8000807CF5
:101A400040B100BF0DA34FF4C4723BA124A0FEF728
:101A500017FC00BF00BF36B104EB8401064A02EB5D
:101A6000810130684860002004EB8401024A02EBE7
:101A70008101C87460B244E71CC700202E2E5C6C44
:101A80007769702D312E342E315C7372635C6E6514
:101A90007469665C6574686172702E630000000092
:101AA0007374617465203D3D204554484152505F38
:101AB00053544154455F50454E44494E47207C7C29
:101AC000207374617465203E3D2045544841525056
:101AD0005F53544154455F535441424C450000000C
:101AE000417373657274696F6E20222573222066BC
:101AF00061696C6564206174206C696E6520256481
:101B000020696E2025730D0A000000006172705F6D
:101B10007461626C655B695D2E71203D3D204E55A0
:101B20004C4C000069203C204152505F5441424CD3
:101B3000455F53495A4500006172705F7461626C81
:101B4000655B695D2E7374617465203D3D2045546D
:101B5000484152505F53544154455F454D5054598C
:101B60000000000010B5044604EB84000C4951F855
:101B7000200060B104EB8401094A52F8210003F00F
:101B800011FF002004EB8401054A42F821000020E7
:101B900004EB8401024A02EB8101887410BD00004D
:101BA0001CC700202DE9FC4704460F461546A946F0
:101BB00000BF44B900BF5EA340F2753265A169A0C1
:101BC000FEF75EFB00BF00BF00BF47B900BF58A3D0
:101BD00040F276326EA163A0FEF752FB00BF00BF59
:101BE00000BF45B900BF52A340F277326BA15DA0A0
:101BF000FEF746FB00BF00BF0E21384603F0BAFFD8
:101C000040B16A484089401C684948816FF0010032
:101C1000BDE8FC872146286801F029F910B1DFF8FA
:101C200090817DE0287800F0F000E02815D10120B7
:101C30008DF8000000208DF801005E208DF8020074
:101C4000687800F07F008DF80300A8788DF8040014
:101C5000E8788DF80500E84661E02868A16808404A
:101C6000D4E901121140884210D0288880B24FF682
:101C7000A96188420AD004F10C0020B1E06810B1DB
:101C800004F10C0902E06FF00300C1E74948007855
:101C900000EB8000484901EB8000807C022818DBC3
:101CA0004449097801EB8101434A02EB8101D9F8EB
:101CB0000000496888420CD13C48C08D401C81B26C
:101CC0003A48C1853B4802783946204600F076F80C
:101CD0009EE700261BE006EB8600374901EB8000FB
:101CE000807C022811DB06EB8601334A02EB81017E
:101CF000D9F800004968884207D12E490E70F2B227
:101D00003946204600F05AF882E7701C46B20A2E87
:101D1000E1DB3A464946204600F0D8F878E700BFB4
:101D2000434604F123023946204600F0F9FA6FE7F2
:101D30002E2E5C6C7769702D312E342E315C7372CF
:101D4000635C6E657469665C6574686172702E634D
:101D5000000000006E6574696620213D204E554CE0
:101D60004C000000417373657274696F6E20222508
:101D70007322206661696C6564206174206C696EF1
:101D80006520256420696E2025730D0A000000007F
:101D90007120213D204E554C4C000000697061645B
:101DA000647220213D204E554C4C0000F4C50020AB
:101DB00040AF0008B20000201CC7002070B50546E7
:101DC0000E46144600BF04EB84001F4901EB80005F
:101DD000807C022808DA00BF1CA34FF4537224A1B0
:101DE0002FA0FEF74DFA00BF00BF04EB8400164998
:101DF00001EB8000807C022817D104EB840001EB0A
:101E00008000C07CE42810DB04EB84000A4602EB6F
:101E10008000011D284600F06DFA30B9032004EB64
:101E20008401094A02EB8101887404EB84000649AD
:101E300001EB800000F10C0305F123023146284636
:101E400000F06EFA70BD00001CC700202E2E5C6CE6
:101E50007769702D312E342E315C7372635C6E6540
:101E60007469665C6574686172702E6300000000BE
:101E70006172705F7461626C655B6172705F6964EE
:101E8000785D2E7374617465203E3D204554484151
:101E900052505F53544154455F535441424C4500A6
:101EA000417373657274696F6E20222573222066F8
:101EB00061696C6564206174206C696E65202564BD
:101EC00020696E2025730D0A000000002DE9F05FE7
:101ED00080460F46164608F123094FF0FF3A414667
:101EE000386800F0C4FF38B9387800F0F000E02816
:101EF00002D00FB1386818B96FF00D00BDE8F09F3F
:101F000001213846FFF7C6FC0446002C08DA2EB142
:101F10006248808C401C81B2604881842046EDE795
:101F200004EB84005E4901EB8000807C30B9012025
:101F300004EB84015A4A02EB8101887400BF04EB70
:101F40008400574901EB8000807C01280FD004EB0E
:101F5000840001EB8000807C022808DA00BF51A3D6
:101F600040F2194258A162A0FEF78AF900BF00BFF3
:101F700004EB84004A4901EB8000807C012800D0FA
:101F80003EB93946404600F0B5F982460EB9504692
:101F9000B4E700BF46B900BF42A340F22D425FA1A3
:101FA00053A0FEF76DF900BF00BF04EB84003C496D
:101FB00001EB8000807C02280FDB5B490C7004EB96
:101FC0008400374901EB800000F10C034A4631469A
:101FD000404600F0A5F982465DE004EB84003049FC
:101FE00001EB8000807C012855D14FF0000B354675
:101FF00017E000BF6889298988420AD1286840B162
:1020000000BF28A340F23E4248A139A0FEF738F9AC
:1020100000BF00BF287B012802D04FF0010B02E077
:102020002D68002DE5D100BFBBF1000F10D029892C
:102030000022032002F0CCFF05466DB13146284650
:1020400003F0F8FA40B1284603F0ACFC002503E0A9
:102050003546284603F018FFA5B104EB840010496B
:1020600051F8200030B104EB84010D4A52F82100F0
:1020700003F098FC04EB8400094941F820504FF02C
:10208000000A07E00548808C401C81B20348818427
:102090004FF0FF3A00BF504630E70000F4C5002083
:1020A0001CC700202E2E5C6C7769702D312E342ECB
:1020B000315C7372635C6E657469665C65746861DB
:1020C00072702E63000000006172705F7461626C58
:1020D000655B695D2E7374617465203D3D205045DC
:1020E0004E44494E47206F7220535441424C4500A4
:1020F000417373657274696F6E20222573222066A6
:1021000061696C6564206174206C696E652025646A
:1021100020696E2025730D0A000000007120213D0A
:10212000204E554C4C000000B20000206E6F207015
:1021300061636B65742071756575657320616C6C86
:102140006F776564210000002DE9F84F0746884647
:1021500091469A46DDF828B00020009000BF47B9AC
:1021600000BF3DA340F2A54244A148A0FEF788F875
:1021700000BF00BF00222A21032002F029FF0546EC
:102180004DB94D48808C401C81B24B4881844FF042
:10219000FF30BDE8F88F00BF68892A2808DA00BF41
:1021A0002DA34FF4966245A138A0FEF769F800BF51
:1021B00000BF6E6806F10E040D9801F081FFE0800B
:1021C00000BF97F82200062808D000BF22A34FF4D2
:1021D000976247492DA0FEF753F800BF00BFDAF819
:1021E0000000A060BAF80400A0810B980168C4F850
:1021F00012108088E082D9F800003060B9F804003D
:10220000B080D8F80000C6F80600B8F80400708165
:10221000DBF80000C4F80E000C980068A0614FF4D1
:10222000807020800820608006202071042060716A
:102230004FF4C160B08129463846BA699047009092
:102240001D48008B401C1C490883284603F0AAFB4C
:10225000002500989DE700002E2E5C6C7769702D9C
:10226000312E342E315C7372635C6E657469665C0A
:102270006574686172702E63000000006E65746999
:102280006620213D204E554C4C0000004173736583
:102290007274696F6E2022257322206661696C65F5
:1022A00064206174206C696E6520256420696E204D
:1022B00025730D0A00000000F4C500206368656303
:1022C0006B20746861742066697273742070627523
:1022D000662063616E20686F6C642073747275632E
:1022E00074206574686172705F6864720000000039
:1022F00044B000087FB504460D460121064A201D62
:1023000004F123038DE825000391044A1946204671
:10231000FFF71AFF04B070BD46AF000840AF0008D9
:102320002DE9F04104460E4617469846756800BFF1
:1023300094F82200062808D000BF0EA340F2A31292
:10234000154916A0FDF79CFF00BF00BFD8F800009C
:102350002860B8F80400A8803868C5F80600B88876
:1023600068810820A88131462046A2699047BDE8CF
:10237000F08100002E2E5C6C7769702D312E342E8A
:10238000315C7372635C6E657469665C6574686108
:1023900072702E630000000044B000084173736542
:1023A0007274696F6E2022257322206661696C65E4
:1023B00064206174206C696E6520256420696E203C
:1023C00025730D0A0000000070B500243DE004EB09
:1023D00084001F4901EB8000857C25B304EB840059
:1023E00001EB8000C07C401C04EB8401184A02EB26
:1023F0008101C87404EB8400114601EB8000C07CAD
:10240000F0280DDA04EB840001EB8000807C0128C9
:102410000AD104EB840001EB8000C07C022803DBBE
:102420002046FFF79FFB0EE004EB8400084901EB18
:102430008000807C032806D1022004EB8401044A3A
:1024400002EB81018874601CC4B20A2CBFDB70BD32
:102450001CC700202DE9F04706460D461746984652
:1024600000BF96F82200062808D000BF2CA340F237
:10247000C31234A13DA0FDF703FF00BF00BF5DB153
:10248000286848B13146286800F0F1FC20B9287866
:1024900000F0F000E02803D16FF00D00BDE8F087F8
:1024A00041462846FFF7F6F90446002C01DA20469B
:1024B000F4E7022004EB8401374A02EB81018874BF
:1024C00004EB8400114601EB8000866004EB84007D
:1024D00001EB80003968C160B9880182002004EBFB
:1024E000840102EB8101C87404EB8400114651F8A9
:1024F000200098B104EB840051F82090002004EBF8
:10250000840142F821003B4606F123024946304649
:10251000FFF706FF484603F045FA00BF0020BDE77D
:102520002E2E5C6C7769702D312E342E315C7372D7
:10253000635C6E657469665C6574686172702E6355
:10254000000000006E657469662D3E687761646402
:10255000725F6C656E203D3D204554484152505F8E
:102560004857414444525F4C454E000041737365E7
:102570007274696F6E2022257322206661696C6512
:1025800064206174206C696E6520256420696E206A
:1025900025730D0A000000001CC700202DE9F04142
:1025A00004460E464FF00E0860890E280BDC3748B3
:1025B000008D401C81B235480185C08B401C81B222
:1025C0003248C1835DE06568AF89287800F001007A
:1025D000B0B12878012809D1687888B9A8785E2830
:1025E0000ED1607B40F01000607309E0062228499C
:1025F0002846FDF7B9FF18B9607B40F0080060730A
:10260000082F03D0B7F5C16F2BD11DE096F8290034
:1026100000F0200000B934E0C8F1000001B220460B
:1026200003F0A8FA58B100BF00BF1AA340F24F52FE
:1026300021A12AA0FDF724FE00BF00BF21E0314602
:10264000204600F0A9FD18E096F8290000F02000CF
:1026500000B916E0224606F123013046FFF72CF8B8
:102660000BE00A48008D401C81B208480185C08BF0
:10267000401C81B20548C18303E000BF0020BDE8D3
:10268000F081204603F08EF90020F8E7F4C5002021
:1026900040AF00082E2E5C6C7769702D312E342EE1
:1026A000315C7372635C6E657469665C65746861E5
:1026B00072702E630000000043616E2774206D6FFE
:1026C0007665206F76657220686561646572206941
:1026D0006E207061636B6574000000004173736568
:1026E0007274696F6E2022257322206661696C65A1
:1026F00064206174206C696E6520256420696E20F9
:1027000025730D0A0000000070B5044600BF44B9EF
:1027100000BF12A340F227121AA11EA0FDF7B0FDC0
:1027200000BF00BF042001F07DFF054615B94FF042
:10273000FF3070BDE561652084F82A006E212B20F2
:1027400001551F4860611F48A06104F12300286003
:10275000204601F067FC0020EBE700002E2E5C6CA9
:102760007769702D312E342E315C7372635C6E6527
:102770007469665C65746865726E657469662E63FB
:10278000000000006E6574696620213D204E554CA6
:102790004C000000417373657274696F6E202225CE
:1027A0007322206661696C6564206174206C696EB7
:1027B0006520256420696E2025730D0A0000000045
:1027C000A51B00088540000870B50446204601F0AE
:1027D00053FC064616B94FF0FF3070BD2146304617
:1027E0002269904705461DB1304603F0DBF800260C
:1027F0002846F2E700BF054A128802F04002002A8C
:10280000F9D0C2B2014B1B1D1A807047004800402E
:1028100070B505460C4616460249204606F080FE75
:10282000002070BD292800082DE9F04107460D461B
:1028300014461E468CB12189284606F0D7FE6289CF
:1028400000232846616807F0E7FC2146284607F088
:10285000F5F8204603F0A6F805E026B9284603F06F
:10286000DDFEBDE8F0810020FBE770B505460C46B3
:1028700022460321284600F0DFF970BD2DE9FE4F06
:10288000044689469A48B0F86200401C81B29848D4
:10289000A0F862106668307800074FEA9068C8F1C7
:1028A0000001204603F066F910B92089042800D2FF
:1028B00004E1606890F800A0BAF1000F03D0BAF10B
:1028C000080F6FD100E0F4E001278A48007800F09B
:1028D000F000E02800D1002786490868494600F04A
:1028E000C6FA00B1002767B98148B0F87400401CEF
:1028F00081B27F48A0F87410204603F053F8BDE879
:10290000FE8F2089082800D2D8E0204600F033FA54
:1029100058B1204603F046F87548B0F86800401CEE
:1029200081B27348A0F86810E9E72221204603F03D
:1029300021F900284FD04146204603F01BF950B141
:1029400000BF00BF6CA3982274A181A0FDF798FC82
:1029500000BF00BFBEE021890022022002F038FB48
:10296000074607B9B6E000BF798908F1080081423F
:1029700007D200BF60A3A12280A175A0FDF780FC53
:1029800000BF00BF2146384602F054FE58B100BFD8
:1029900000BF59A3A52287A16DA0FDF771FC00BF60
:1029A00000BF97E075E07E68C8F1000001B23846CC
:1029B00003F0E0F850B100BF00BF4FA3AB2287A1E6
:1029C00063A0FDF75DFC00BF00BF83E0204602F07E
:1029D000E9FF3C4610E06FF02101204603F0CAF801
:1029E00050B100BF00BF44A3B5227CA158A0FDF7A1
:1029F00047FC00BF00BF6DE065683E480068F060BE
:102A0000834800683061002028704FF2FF7001F0A9
:102A100057FB6988884208DC4FF4006001F050FBE6
:102A2000401C69880844688006E04FF4006001F0AB
:102A300047FB698808446880FF203072002070815D
:102A40001421304600F08DF970812948B0F86000FB
:102A5000401C2749A1F860004146204603F08AF84F
:102A600048B100BF00BF24A3EC226AA138A0FDF743
:102A700007FC00BF0CE001200021FF230A46CDE93E
:102A8000010900911B49204600F004FD074600BFE4
:102A90000FE01748B0F87000401C81B21448A0F84D
:102AA0007010B0F86600401C81B21148A0F86610A2
:102AB00000BF00BF204602F075FF20E7204602F06D
:102AC00071FF0B48B0F86A00401C81B20848A0F8BA
:102AD0006A1014E7204602F065FF0548B0F874005C
:102AE000401C81B20248A0F8741000BF07E7000044
:102AF000F4C50020A40000202E2E5C6C7769702D98
:102B0000312E342E315C7372635C636F72655C6965
:102B10007076345C69636D702E63000069636D705C
:102B20005F696E7075743A206D6F76696E6720709C
:102B30002D3E7061796C6F616420746F2069702024
:102B4000686561646572206661696C65640A00008D
:102B5000417373657274696F6E202225732220663B
:102B600061696C6564206174206C696E6520256400
:102B700020696E2025730D0A0000000063686563FC
:102B80006B2074686174206669727374207062755A
:102B9000662063616E20686F6C6420737472756365
:102BA00074207468652049434D50206865616465F0
:102BB0007200000069636D705F696E7075743A2011
:102BC000636F7079696E6720746F206E657720700F
:102BD000627566206661696C65640A0069636D7080
:102BE0005F696E7075743A20726573746F72696E86
:102BF00067206F726967696E616C20702D3E70612D
:102C0000796C6F6164206661696C65640A0000001C
:102C1000A000002043616E2774206D6F7665206FE1
:102C20007665722068656164657220696E207061E6
:102C3000636B6574000000002DE9FE4306460F46F5
:102C4000904600222421012002F0C2F905460DB968
:102C5000BDE8FE8300BF6889242808D200BF1CA3FA
:102C60004FF4A27223A12EA0FDF70AFB00BF00BF04
:102C7000D6F804906C68277084F801800020A0804A
:102C8000E08071686A6802F108001C22FDF798FC78
:102C9000002060806989204600F063F860802B483E
:102CA000B0F86000401C2949A1F86000D9F80C0078
:102CB000029001200021FF2302AACDE9001028463E
:102CC00000F088FB284602F06DFE00BFC0E7000060
:102CD0002E2E5C6C7769702D312E342E315C737220
:102CE000635C636F72655C697076345C69636D7098
:102CF0002E630000636865636B20746861742066EE
:102D00006972737420706275662063616E20686FEB
:102D10006C642069636D70206D6573736167650015
:102D2000417373657274696F6E2022257322206669
:102D300061696C6564206174206C696E652025642E
:102D400020696E2025730D0A00000000F4C50020E4
:102D500070B505460C4622460B212846FFF76CFF4E
:102D600070BD70B504460D462946204601F0F4F9C1
:102D7000C04380B270BD2DE9F04106460024002713
:102D8000354617E06989686801F0E6F90444A0B2A5
:102D900000EB1444688900EBD0714910A0EB4101AD
:102DA00039B1C7F10100C7B2E0B2C4F3072141EA6B
:102DB00000242D68002DE5D127B1E0B2C4F307212E
:102DC00041EA0024E04380B2BDE8F0812DE9F05FE4
:102DD0000746884691469A460024A3463D4618E099
:102DE0006989686801F0B8F90444A0B200EB1444A2
:102DF000688900EBD0714910A0EB410141B1CBF1E2
:102E0000010000F0FF0BE0B2C4F3072141EA002407
:102E10002D68002DE4D1BBF1000F04D0E0B2C4F363
:102E2000072141EA0024D8F80060B0B204444FF60C
:102E3000FF7000EA16400444D9F80060B0B20444C0
:102E40004FF6FF7000EA16400444504601F038F98E
:102E500004440A9801F034F90444A0B200EB14448D
:102E6000A0B200EB1444E04380B2BDE8F09F18B577
:102E700002460092D04300B10AB9012018BD91F872
:102E8000290000F0020008B90020F7E748689042E6
:102E900001D10020F2E700988B681840D1E9013495
:102EA0002340984208D1886822EA00008C68E343F6
:102EB000984201D10120E1E70020DFE72DE9F74F3B
:102EC0008CB004468946B9F820000890142004907C
:102ED0004FF0000860680B900B9EF08801F036F907
:102EE00003900398C0F30C000790039800F400507F
:102EF00006902089143880B209900899A1F1140035
:102F0000C11700EB5171C1F3CF010A91B5E00898E8
:102F100014380999884201DB012000E00020059067
:102F20000798C0F30C00069908430390059818B958
:102F3000039840F400500390059808B1099801E007
:102F40000A98C0001FFA80FB00221421022002F020
:102F50003FF8054625B94FF0FF300FB0BDE8F08FC0
:102F600000BF6089142808DA00BF47A340F2FB22A3
:102F70004FA157A0FDF784F900BF00BF1422686875
:102F80000B99FDF71DFB6E6861680498084460604A
:102F900061890498081A6081CDF808B03FE0618922
:102FA0000298814201DD029800E060898046B8F114
:102FB000000F01D1246832E000F0A4F807462FB9D1
:102FC000284602F0EFFC4FF0FF30C6E760683B4652
:102FD00002224146CDE90008032002F001FA8246B0
:102FE000BAF1000F08D1384600F092F8284602F0F6
:102FF000D9FC4FF0FF30B0E7204602F045FF7C617E
:103000003E4838615146284602F068FA0298A0EB23
:10301000080080B20290029800B1246800BF0298B4
:103020000028BCD1CDF81080039801F049F8F08059
:103030000BF1140188B201F043F870800020708118
:1030400014213046FFF78DFE7081D9F814302946DF
:1030500048460E9A98472A48008E401C2849088600
:10306000284602F09FFC0998A0EB0B0080B2099063
:103070000A990798084480B20790099800287FF4BD
:1030800046AF00BF69E700002E2E5C6C7769702D9B
:10309000312E342E315C7372635C636F72655C69D0
:1030A0007076345C69705F667261672E6300000041
:1030B00074686973206E6565647320612070627541
:1030C0006620696E206F6E652070696563652100FA
:1030D000417373657274696F6E20222573222066B6
:1030E00061696C6564206174206C696E652025647B
:1030F00020696E2025730D0A000000006D3F000856
:10310000F4C5002010B5062001F0B2FD10BD00008E
:1031100010B5044600BF44B900BF07A340F27922AE
:103120000FA112A0FDF7ACF800BF00BF214606209A
:1031300001F0EAFC10BD00002E2E5C6C7769702D4A
:10314000312E342E315C7372635C636F72655C691F
:103150007076345C69705F667261672E6300000090
:103160007020213D204E554C4C000000417373658A
:103170007274696F6E2022257322206661696C6506
:1031800064206174206C696E6520256420696E205E
:1031900025730D0A000000002DE9F04706460F4692
:1031A0008648B0F84A00401C81B28448A0F84A1012
:1031B000756828780421B1EB201F14D0304602F046
:1031C000F1FB7E48B0F85C00401C81B27B48A0F85F
:1031D0005C10B0F84E00401C81B27848A0F84E1048
:1031E0000020BDE8F087287800F00F084FF6FF7048
:1031F00000EA8808688800F0A9FF81467089404588
:1032000002DB3089484513DA304602F0CBFB6B48CD
:10321000B0F85200401C81B26848A0F85210B0F8D3
:103220004E00401C81B26548A0F84E100020D8E73F
:1032300041462846FFF795FD98B1304602F0B2FBB3
:103240005E48B0F85000401C81B25C48A0F85010B5
:10325000B0F84E00401C81B25848A0F84E10002033
:10326000BFE74946304602F02FFD286954490860FF
:10327000E868544908604FF0010A3C4600BF94F8E2
:10328000290000F0010078B1201D68B1606858B1D4
:103290004B4800686168884205D049490868214662
:1032A000FFF7E5FD00B10DE0BAF1000F04D04FF0DB
:1032B000000A4548046800E02468BC4200D1246844
:1032C000002CDCD100BF3F4908683946FFF7CFFD2D
:1032D00028B93C48007800F0F000E0280CD13046D6
:1032E00002F060FB3548B0F84E00401C81B2334814
:1032F000A0F84E10002074E724B9304602F052FBCB
:1033000000206EE7E8884FF63F71084038B130463C
:1033100000F0B4F906460EB9002062E775682B4844
:1033200007602B4805603946304602F097FED0BB57
:10333000687A01280DD0062806D011280ED139460A
:10334000304607F043FC2DE03946304603F0B6FC2A
:1033500028E039463046FFF791FA23E0184908681B
:103360003946FFF784FD50B91548007800F0F000A9
:10337000E02804D0756002213046FFF776FA304627
:1033800002F010FB0D48B0F85800401C81B20B4809
:10339000A0F85810B0F84E00401C81B20748A0F8C1
:1033A0004E1000BF00BF00200849086008490860AF
:1033B000044908600249086000BF12E7F4C5002014
:1033C000A4000020A0000020300000209800002071
:1033D0009C0000202DE9FE4F05460F4616469846F4
:1033E000DDE90C9A00BFE889012808D000BF11A3CD
:1033F00040F2393218A11BA0FCF742FF00BF00BF0A
:10340000304600F07FFD041E0AD12148B0F8560076
:10341000401C81B21E48A0F85610201FBDE8FE8F48
:103420004346324639462846CDE9009A029400F0D8
:1034300031F8F3E72E2E5C6C7769702D312E342E27
:10344000315C7372635C636F72655C697076345C67
:1034500069702E6300000000702D3E726566203D8D
:103460003D203100417373657274696F6E202225AF
:103470007322206661696C6564206174206C696EDA
:103480006520256420696E2025730D0A0000000068
:10349000F4C500202DE9F84F0646884691469A4625
:1034A0000C9F002500BFF089012808D000BF4EA363
:1034B0004FF4277255A158A0FCF7E2FE00BF00BFF1
:1034C000B9F1000F72D04FF0140B1421304602F006
:1034D00051FB58B15B48B0F85C00401C81B25948C0
:1034E000A0F85C106FF00100BDE8F88F746800BFB1
:1034F0007089142808D200BF3BA340F2C92252A110
:1035000045A0FCF7BDFE00BF00BF84F808A00B98E3
:1035100060720B984AEA00200544D9F80000206147
:10352000208A80B20544206905EB104558464FEAD1
:10353000EB710BEB9171C1F3870141F040012170F8
:103540000A98607021780A9841EA00200544308981
:1035500000F0B6FD6080608805440020E0804648A9
:10356000008800F0ADFDA080A08805444248008896
:10357000401C41490880B8F1000F02D0D8F8000083
:1035800010B97868E06002E0D8F80000E060A08937
:1035900080B20544E06805EB1045A8B200EB154584
:1035A00005EB1545ED43658104E0FFE7746820698C
:1035B0000090E9462348B0F84800401C2149A1F892
:1035C0004800388C48B13089398C884205DD4A463C
:1035D00039463046FFF772FC86E74A4631463846A0
:1035E0007B69984780E700002E2E5C6C7769702D10
:1035F000312E342E315C7372635C636F72655C696B
:103600007076345C69702E6300000000702D3E728D
:103610006566203D3D203100417373657274696FAA
:103620006E2022257322206661696C6564206174B6
:10363000206C696E6520256420696E2025730D0A53
:1036400000000000F4C50020636865636B207468A7
:10365000617420666972737420706275662063619C
:103660006E20686F6C642073747275637420697067
:103670005F68647200000000A80000202DE9F84F88
:103680008046002000906F48408E401C81B26D48FB
:103690004186D8F80450287800F00F001421B1EBCF
:1036A000800F08D06748B0F84400401C81B26548DC
:1036B000A0F84410BAE0E88800F048FDC0F30C0020
:1036C0004FF6FF7101EAC00A688800F03FFD2978D3
:1036D00001F00F01A0EB81001FFA80FB404601F0D2
:1036E0009FFF06465848018888190A2810DD314690
:1036F000284600F0A1FB20B15348008830440A2836
:1037000006DD5048808F401C81B24E4881878DE095
:103710004E4804681AE06069E968884209D1A069E6
:103720002969884205D1A089A988884201D1012050
:1037300000E0002040B14348B0F84600401C81B290
:103740004048A0F8461003E000942468002CE2D121
:1037500000BF34B93146284600F058FA044694B9FF
:1037600064E0E88800F0F2FCC0F30C0058B9E0898E
:1037700000F0ECFCC0F30C0028B11422294604F13F
:103780000800FCF71DFF3048008830442E490880AF
:10379000A87900F0200030B9A07F40F00100A077A8
:1037A0000AEB0B00A0834146204600F051F8D0B34D
:1037B000A08B1430A0836068406807686068456823
:1037C000142204F108012846FCF7FAFEA08B00F051
:1037D00077FC68800020E880688114212846FFF784
:1037E000C0FA6881D4F804800CE0D7F804906FF038
:1037F0001301384602F0BEF93946404601F06EFE2C
:10380000D9F80070002FF0D12046009900F0A6F9F9
:10381000404601F005FF0C490988081A0A4908804A
:103820004046BDE8F88FFFE70020FAE70548C08E64
:10383000401C81B20348C186404602F0B3F8002024
:10384000EFE70000F4C50020B0000020AC0000202D
:103850002DE9FC5F06460F4600254FF0010BD7F817
:1038600004A0BAF8020000F071FC9AF8001001F010
:103870000F01A0EB810080B20090BAF8060000F0C2
:1038800065FCC0F30C004FF6FF7101EAC000019027
:1038900000BF00BF7C68002020600198A080DDE9A7
:1038A00000100844E080D6F804902EE0D9F8048097
:1038B000A088B8F80410884210DAC4F800905DB10E
:1038C000A088E988884204DBE088B8F804108842C0
:1038D00000DDABE02F6000E0776019E0A088B8F869
:1038E0000410884200D1A1E0A088B8F806108842F0
:1038F00000DA9BE035B1E888B8F80410884201D0BE
:103900004FF0000BD8F800904546B9F1000FCDD12B
:1039100000BFB9F1000F26D1002D16D000BFE888F6
:10392000A188884208DD00BF47A340F2931250A14E
:1039300057A0FCF7A5FC00BF00BF2F60E888A18856
:10394000884210D04FF0000B0DE000BF706840B10E
:1039500000BF3DA340F29B1258A14DA0FCF790FC84
:1039600000BF00BF7760B07F00F0010000285BD08F
:10397000BBF1000F55D070684068808810B14FF0DF
:10398000000B4EE02546D4F800900BE0D9F8044037
:10399000E888A188884202D04FF0000B05E0254658
:1039A000D4F80090B9F1000FF0D100BFBBF1000FC7
:1039B00037D000BF706840B900BF23A34FF4DE7258
:1039C0004CA133A0FCF75CFC00BF00BF00BF7068D7
:1039D0004068A04208D100BF1BA340F2BD1245A120
:1039E0002BA0FCF74DFC00BF00BF00BF206840B11A
:1039F00000BF15A340F2BF1242A125A0FCF740FC76
:103A000000BF00BF00BFE088B18B884208D000BF74
:103A10000DA340F2C11244A11DA0FCF731FC00BF70
:103A200000BF5846BDE8FC9F0020FBE7384601F088
:103A3000F7FD49490988081A47490880384601F0C6
:103A4000B1FF0020EEE700002E2E5C6C7769702D30
:103A5000312E342E315C7372635C636F72655C6906
:103A60007076345C69705F667261672E6300000077
:103A7000636865636B20667261676D656E74732041
:103A8000646F6E2774206F7665726C617000000041
:103A9000417373657274696F6E20222573222066EC
:103AA00061696C6564206174206C696E65202564B1
:103AB00020696E2025730D0A000000006E6F2070D3
:103AC000726576696F757320667261676D656E7475
:103AD0002C2074686973206D75737420626520747E
:103AE000686520666972737420667261676D656EC1
:103AF0007421000073616E69747920636865636B7B
:103B00000000000076616C69646174655F646174D3
:103B1000616772616D3A6E6578745F706275662177
:103B20003D4E554C4C00000076616C6964617465D3
:103B30005F646174616772616D3A64617461677238
:103B4000616D20656E64213D646174616772616DB1
:103B5000206C656E00000000B000002070B50446C7
:103B60000D460D480068A04203D10B49206808604B
:103B70000DE000BF45B900BF08A340F2391211A102
:103B800017A0FCF77DFB00BF00BF2068286021461E
:103B9000052000F0B9FF70BDAC0000202E2E5C6C3B
:103BA0007769702D312E342E315C7372635C636FD4
:103BB00072655C697076345C69705F667261672EED
:103BC0006300000073616E69747920636865636BDC
:103BD000206C696E6B6564206C6973740000000072
:103BE000417373657274696F6E202225732220669B
:103BF00061696C6564206174206C696E6520256460
:103C000020696E2025730D0A0000000070B505467E
:103C10000E46052001F02CF8044694B9314628469A
:103C200000F00AF9B04203DB052001F021F8044658
:103C30003CB90D48808F401C81B20B488187002021
:103C400070BD20212046FCF700FD0320E0770748E7
:103C500000682060054804601422294604F1080029
:103C6000FCF7AEFC2046EBE7F4C50020AC000020DA
:103C70002DE9F04704468846002500BFA04507D13E
:103C800000BF40A3A52249A14BA0FCF7F9FA00BF51
:103C900000BFB8F1000F0DD000BFD8F80000A0425F
:103CA00007D000BF37A3A7224EA143A0FCF7E8FA34
:103CB00000BF00BF6068D0F80490B9F80400002885
:103CC00024D16768D9F800006060142204F108016B
:103CD0007868FCF775FC01213846FFF739F838465B
:103CE00001F09EFC064600BFA819B0F5803F07DB37
:103CF00000BF24A3B62240A12FA0FCF7C1FA00BF49
:103D000000BFA81985B2384601F04CFE67681CE078
:103D1000D7F80490BA46D9F80070504601F080FCFC
:103D2000064600BFA819B0F5803F07DB00BF15A30A
:103D3000C62231A120A0FCF7A3FA00BF00BFA8193A
:103D400085B2504601F02EFE00BF002FE0D1414663
:103D50002046FFF703FF00BF2F480088A84207DA7C
:103D600000BF08A3CC222DA113A0FCF789FA00BF45
:103D700000BF29480088401B274908802846BDE825
:103D8000F08700002E2E5C6C7769702D312E342E5A
:103D9000315C7372635C636F72655C697076345C0E
:103DA00069705F667261672E6300000070726576ED
:103DB00020213D2069707200417373657274696FD0
:103DC0006E2022257322206661696C65642061740F
:103DD000206C696E6520256420696E2025730D0AAC
:103DE00000000000707265762D3E6E657874203D8F
:103DF0003D2069707200000070627566735F6672C4
:103E0000656564202B20636C656E203C3D20307816
:103E10006666666600000000B000002069705F7290
:103E2000656173735F70627566636F756E74203E53
:103E30003D20636C656E00002DE9F05F0546894604
:103E4000002700BF0026B346B246194804681DE0AB
:103E50006069E968884207D1A0692969884203D16D
:103E6000A089A988884201D0012000E0002048B143
:103E70000AF1010A0EB9264604E0E07FF17F88428C
:103E800000DC2646206800B1A3462468002CDFD160
:103E90002EB159463046FFF7EBFE804647444F456A
:103EA00002DABAF1010FCDDC3846BDE8F09F000020
:103EB000AC00002010B5044600F00AF800220349C7
:103EC0004FF47A7002F048F910BD0000B53E0008CA
:103ED00070B500250A4804680FE0E07F002805DD82
:103EE000E07F401EE0772546246806E026462468E9
:103EF00029463046FFF7BCFE00BF002CEDD170BD57
:103F0000AC00002010B50246154801680FE091F89A
:103F1000290000F0010048B110688B681840D1E911
:103F200001342340984201D1084610BD0968002998
:103F3000EDD10C48006830B10A48006890F82900BB
:103F400000F0010048B90848B0F85600401C83B2A0
:103F50000548A0F856300020E7E702480068E4E78B
:103F60003000002034000020F4C5002070B5054664
:103F70002C4600BF44B900BF0FA340F2832218A112
:103F80001AA0FCF77DF900BF00BF00BFAC4208D00B
:103F900000BF09A34FF421721FA114A0FCF770F910
:103FA00000BF00BF606910B1606901F0FBFC2046F2
:103FB000FFF7AEF870BD00002E2E5C6C7769702D97
:103FC000312E342E315C7372635C636F72655C6991
:103FD0007076345C69705F667261672E6300000002
:103FE00070637220213D204E554C4C004173736527
:103FF0007274696F6E2022257322206661696C6578
:1040000064206174206C696E6520256420696E20CF
:1040100025730D0A00000000706372203D3D207082
:104020000000000070B50446E569062084F822000F
:104030001048007884F823000E4841782420015568
:104040000C488178252001550A48C1782620015561
:104050000848017927200155064841792820015553
:1040600040F2DC502084322084F82900014800F01E
:10407000AFFE70BDB300002010B504462046FCF72B
:10408000CDFC10BD70B505460C462046FCF712FD70
:1040900070BD00F02BF806F025FD03E001F0D2FF23
:1040A00002F018F8FAE70146080601F47F4240EAF8
:1040B000022001F47F0240EA122040EA11607047BA
:1040C00001460806000C40EA1120704710B501F0C7
:1040D000FFFF00F073FA00F07DFD00F0F9FE06F03E
:1040E00073FD02F0E9FD02F0D7F810BD00B587B00E
:1040F000FFF7ECFF0D4804900D4806906FF07F40ED
:1041000005900C480C49002204ABCDE90021029037
:1041100005AA06A9094800F069FE084800F0EEFE6D
:10412000064800F039FF07B000BD0000C0A801013B
:10413000C0A801259D25000809270008BC00002013
:1041400000B503461846FFF7AEFF00BD00B50246B6
:104150001046FFF7B5FF00BDF8B505460A462B46E9
:1041600000200090002103F0010636B1002A04DD92
:1041700013F8010B8DF80100521E1C4603E034F8C1
:10418000027B3944921E012AF9DC002A02DD2078E4
:104190008DF80000BDF80000014488B200EB114129
:1041A00088B200EB114126B1C8B2C1F3072747EA34
:1041B000002188B2F8BD000000244FF4A060FCF795
:1041C00023FC4FF4165006F0A5FC3949481EB0F107
:1041D000807F01D301201BE0481E4FF0E022506198
:1041E00050170F22002807DA13071E0E314B00F07C
:1041F0000F052D1F5E5503E013071D0E2E4B1D549A
:1042000000BF00204FF0E0229061072010610020E5
:1042100008B100BFFEE729A0FCF732F835A0FCF793
:104220002FF834A0FCF72CF840A0FCF729F84DA09B
:10423000FCF726F859A0FCF723F866A0FCF720F855
:104240002CA0FCF71DF871A0FCF71AF8FCF702FD92
:104250001020FCF79BFD00207A49086041F69B1076
:1042600000E0401E0028FCDB01207649086041F692
:104270009B1000E0401E0028FCDBFF2200211046BE
:10428000FDF7F4F901E0601C84B21D20FDF76BF925
:1042900000F0010008B9FA2CF5DBFA2C02DB6AA069
:1042A000FBF7EEFF0020FFF7F4FE00BFFEE7000083
:1042B0000045330018ED00E000E400E02A2A2A2A35
:1042C0002020202020202028432920434F505952CD
:1042D00049474854203230313320D6C6D4ECD5DF9C
:1042E000BFC6BCBC202020202A2A2A2A2A2A2A0D1E
:1042F0000A0000002A20202020202020202020202A
:1043000020202020202020202020202020202020AD
:10431000202020202020202020202020202020209D
:104320002020202020202A0D0A0000002A20202002
:1043300020204D4355C6BDCCA83A53544D33324688
:104340003130335645543620202020202020202094
:1043500020202020202020202020202020202A0D66
:104360000A0000002A2020202020D2D4CCABCDF897
:10437000D3B2BCFE3A454E4332384A363020202074
:10438000202020202020202020202020202020202D
:104390002020202020202A0D0A0000002A20202092
:1043A0002020B9CCBCFEBFE2A3BA332E352020209A
:1043B00020202020202020202020202020202020FD
:1043C00020202020202020202020202020202A0DF6
:1043D0000A0000002A2020202020C0FDB3CCB0E637
:1043E000B1BE3A20302E3220202020202020202054
:1043F00020202020202020202020202020202020BD
:104400002020202020202A0D0A0000002A2A2A2A03
:104410002A2A2A2A2A2A2A2A2A2A2A2A2A2A2A2AFC
:104420002A2A2A2A2A2A2A2A2A2A2A2A2A2A2A2AEC
:104430002A2A2A2A2A2A2A2A2A2A2A2A2A2A2A0DF9
:104440000A000000880240426661696C200D0A0083
:1044500070B5054605B970BD00BF05F0030040B159
:1044600000BF2BA34FF4A07231A13AA0FBF708FFC5
:1044700000BF00BF00BF42480068854203D34148E7
:104480000068854208D300BF21A34FF4A1723EA16A
:1044900030A0FBF7F5FE00BF00BF39480068854239
:1044A00003D338480068854208D33D48B0F8B000CF
:1044B000401C81B23A48A0F8B010CCE7A5F108043E
:1044C00000BF207940B900BF11A340F2531235A1BB
:1044D00020A0FBF7D5FE00BF00BF002020713648AA
:1044E0000068844201D23448046020882449098845
:1044F000611A411A2A48B0F8AA00401A81B2284825
:10450000A0F8AA10204601F0C5FC00BFA3E70000F8
:104510002E2E5C6C7769702D312E342E315C7372C7
:10452000635C636F72655C6D656D2E6300000000F7
:104530006D656D5F667265653A2073616E69747949
:1045400020636865636B20616C69676E6D656E746E
:1045500000000000417373657274696F6E2022253C
:104560007322206661696C6564206174206C696ED9
:104570006520256420696E2025730D0A0000000067
:1045800024000020280000206D656D5F667265655F
:104590003A206C6567616C206D656D6F7279000003
:1045A000F4C500206D656D5F667265653A206D65C6
:1045B0006D2D3E75736564002C00002000BF00BFA8
:1045C000134921F00301134A1160114608684FF4A2
:1045D000F04101800021418001711146096801F517
:1045E000F0410D4A11600121126811714FF4F04140
:1045F000094A12681180084A126851800549096801
:10460000064A11604FF4F041054AA2F8A81070471D
:10461000B701002024000020280000202C000020EA
:10462000F4C500202DE9F047054615B90020BDE886
:10463000F087E81C20F0030085B20C2D00DA0C2571
:10464000B5F5F04F01DD0020F1E76E4800886E49B6
:104650000988401A86B2C5E06B4800688419207941
:1046600000287DD1218806F10800081AA84277D3D6
:10467000218806F10800091A05F11400814232D39D
:1046800006F1080028441FFA80F85F48006800EB34
:10469000080700203871208838807E80A4F80080C8
:1046A000012020713888B0F5F04F05D03888564980
:1046B00009680844A0F8028000BF5448B0F8AA1066
:1046C00005F10800084481B25048A0F8AA10B0F8DB
:1046D000AC10B0F8AA00814204DA4C48B0F8AA1035
:1046E000A0F8AC101BE00120207100BF20884649D3
:1046F0000988611A411A4548B0F8AA00084481B2F5
:104700004248A0F8AA10B0F8AC10B0F8AA00814254
:1047100004DA3E48B0F8AA10A0F8AC1000BF39483F
:10472000006884422AD13748D0F8009005E0B9F8F3
:1047300000003549096800EB010999F8040018B137
:10474000334800688145F2D12E48C0F8009000BF80
:1047500000682F49096888420ED02A48006800E0A6
:104760003DE0007940B100BF2AA340F2622231A1AE
:1047700037A0FBF785FD00BF00BF00BF00BF04F1FD
:104780000800284422490968884208D900BF21A3AB
:1047900040F2662239A12EA0FBF772FD00BF00BFD8
:1047A00000BF04F0030040B100BF1AA34FF41A7217
:1047B0003EA127A0FBF764FD00BF00BF00BF04F0CF
:1047C000030040B100BF13A340F26A2243A120A01E
:1047D000FBF756FD00BF00BF04F1080027E70A48B9
:1047E0000068865BC5F5F040B0423FF735AF07483B
:1047F000B0F8AE00401C81B20448A0F8AE10002012
:1048000015E700002C00002024000020F4C5002043
:10481000280000202E2E5C6C7769702D312E342EEE
:10482000315C7372635C636F72655C6D656D2E6382
:10483000000000006D656D5F6D616C6C6F633A2008
:10484000216C667265652D3E75736564000000001D
:10485000417373657274696F6E202225732220661E
:1048600061696C6564206174206C696E65202564E3
:1048700020696E2025730D0A000000006D656D5FD4
:104880006D616C6C6F633A20616C6C6F6361746511
:1048900064206D656D6F7279206E6F742061626F38
:1048A00076652072616D5F656E642E006D656D5F6B
:1048B0006D616C6C6F633A20616C6C6F63617465E1
:1048C00064206D656D6F72792070726F7065726CA7
:1048D0007920616C69676E65642E00006D656D5F9F
:1048E0006D616C6C6F633A2073616E6974792063DB
:1048F0006865636B20616C69676E6D656E7400003E
:104900002DE9F04781460D46E81C20F0030085B2F2
:104910000C2D00DA0C25B5F5F04F02DD0020BDE8C6
:10492000F08700BF53480068814503D352480068B0
:10493000814508D300BF51A34FF4C37257A15DA0B6
:10494000FBF79EFC00BF00BF4A480068814503D3C7
:1049500049480068814509D36148B0F8B000401C5F
:1049600081B25F48A0F8B0104846D8E7A9F108081E
:1049700040480088A8EB00001FFA80FAB8F8000051
:10498000A0EB0A00083887B200BFBD4208DD00BFB7
:104990003AA34FF4CC7253A146A0FBF771FC00BFC1
:1049A00000BFBD4201DD0020B9E7BD4201D148464C
:1049B000B5E7B8F800002F4909684418207950BBC2
:1049C00020880AF1080129448EB24E490968A142A3
:1049D00004D12849096831444A4A116025490968C7
:1049E0008C19002121712080A4F802A0A8F8006091
:1049F0002188B1F5F04F04D021881E4A1268114475
:104A00004E803749B1F8AA107A1B891A8AB2344904
:104A1000A1F8AA202BE005F11400B84227D80AF12A
:104A20000800284486B21348006884193548006895
:104A3000844201D23348046000202071B8F800009D
:104A40002080A4F802A0A8F800602088B0F5F04FFC
:104A500004D0208807490968084446802048B0F8F7
:104A6000AA00791B401A81B21D48A0F8AA10484636
:104A700055E7000024000020280000202E2E5C6C4A
:104A80007769702D312E342E315C7372635C636FE5
:104A900072655C6D656D2E63000000006D656D5F75
:104AA0007472696D3A206C6567616C206D656D6F1D
:104AB00072790000417373657274696F6E202225EC
:104AC0007322206661696C6564206174206C696E74
:104AD0006520256420696E2025730D0A0000000002
:104AE000F4C500206D656D5F7472696D2063616E41
:104AF000206F6E6C7920736872696E6B206D656DC6
:104B00006F7279002C00002070B504460D4605B97F
:104B100070BD00BF05F0030040B100BF10A340F21C
:104B2000BB1217A11EA0FBF7ABFB00BF00BF2E46B8
:104B300004EB8401254800EB41004088401E81B20F
:104B400004EB8402214800EB42004180204850F8E9
:104B5000240030601E4840F8246000BFD8E7000001
:104B60002E2E5C6C7769702D312E342E315C737271
:104B7000635C636F72655C6D656D702E6300000031
:104B80006D656D705F667265653A206D656D20704C
:104B9000726F7065726C7920616C69676E65640014
:104BA000417373657274696F6E20222573222066CB
:104BB00061696C6564206174206C696E6520256490
:104BC00020696E2025730D0A00000000A6C6002093
:104BD000C879002030B500201CE0002400EB8005DF
:104BE0001E4B03EB45035C8000EB80051B4B03EB86
:104BF00045039C8000EB8005184B03EB4503DC80EC
:104C0000174B33F8104000EB8005144B23F8154088
:104C1000431C98B20A28E0DB124B23F0030100206A
:104C200019E00023104C44F8203000220CE00E4B19
:104C300053F820300B600C4B43F820100B4B33F82B
:104C400010301944531C9AB2054B33F8103093427C
:104C5000EDDC431C98B20A28E3DB30BDA6C6002079
:104C6000D2AE0008F3790020C8790020BEAE00085B
:104C700070B5044600BF0A2C0ADB00BF2EA34FF418
:104C8000C77235A13CA0FBF7FBFA00BF002070BD46
:104C900000BF444850F82450002D3CD041492868BA
:104CA00041F8240000BF04EB84013F4800EB4100C1
:104CB0004088401C81B204EB84023B4800EB420078
:104CC000418004EB8401384800EB4100818804EB0B
:104CD0008402354800EB4200408881420BDA04EB45
:104CE0008401314800EB4100418804EB84022E48E6
:104CF00000EB4200818000BF00BF05F0030040B11F
:104D000000BF0DA340F29F1228A11BA0FBF7B8FA29
:104D100000BF00BF0DE004EB8401234800EB41001D
:104D2000C088401C81B204EB84021F4800EB4200A3
:104D3000C1802846ABE700002E2E5C6C7769702D91
:104D4000312E342E315C7372635C636F72655C6DFF
:104D5000656D702E630000006D656D705F6D616C38
:104D60006C6F633A2074797065203C204D454D503E
:104D70005F4D415800000000417373657274696FA4
:104D80006E2022257322206661696C65642061743F
:104D9000206C696E6520256420696E2025730D0ADC
:104DA00000000000C8790020A6C600206D656D7067
:104DB0005F6D616C6C6F633A206D656D7020707211
:104DC0006F7065726C7920616C69676E6564000054
:104DD00010B504462046FCF709FA40F2764114204B
:104DE000FCF7A8FB0220FCF75FFC10BD2DE9F047A3
:104DF00004460E4617469846DDE9095ADDF820902C
:104E000000BF3DB900BF17A38F221EA123A0FBF74F
:104E100037FA00BF00BF00206060A060E06084F847
:104E20002900C4F81C902848007884F82C002648F3
:104E30000078401C24490870C4F810A043463A4644
:104E40003146204600F045F82046A84710B1002022
:104E5000BDE8F0871D48006820601C4804602046BB
:104E6000F6E700002E2E5C6C7769702D312E342E03
:104E7000315C7372635C636F72655C6E65746966E6
:104E80002E6300004E6F20696E69742066756E6334
:104E900074696F6E20676976656E00004173736593
:104EA0007274696F6E2022257322206661696C65B9
:104EB00064206174206C696E6520256420696E2011
:104EC00025730D0A0000000038000020300000208B
:104ED00070472DE9F04106460F4614461D463946F7
:104EE000304600F017F82146304600F04FF82946CA
:104EF000304600F009F8BDE8F08100000149086083
:104F0000704700003400002009B9002200E00A6860
:104F1000C26070472DE9F04107460C4654B3206843
:104F20007968884201D1012000E0002010BB1548BB
:104F300006680BE030687968884206D1D6F80C80A4
:104F4000304601F05DFA464600E0F668002EF1D1E9
:104F50000D4805680CE055B1286840B128687968AB
:104F6000884204D10CB9002000E020682860ED6878
:104F7000002DF0D10CB9002000E020687860BDE879
:104F8000F0810000500000204C00002009B90022F0
:104F900000E00A688260704710B5044694F8290062
:104FA00000F0010090B914F8290F40F001002070C2
:104FB00014F8290900F0100040B194F8290000F01D
:104FC000200018B1211D2046FDF794F910BD000006
:104FD0002DE9F05F83460F469146BBF1000F09D0E3
:104FE000BBF1010F08D0BBF1020F07D0BBF1030FDB
:104FF00008D105E0362612E0222610E00E260EE04B
:1050000000260CE000BF00BF92A3E82299A1A0A057
:10501000FBF736F900BF00BF0020BDE8F09F00BFDE
:10502000B9F1000F71D0B9F1010F6FD0B9F1020FD2
:105030006DD0B9F1030F6BD10920FFF719FE0446BB
:105040001CB900F03BFE0020E7E784F80C9000203C
:10505000206006F110002044C01C20F003006060B6
:1050600000BF207900F0030038B100BF79A3FA2215
:1050700092A187A0FBF704F900BF00BF2781F01CB5
:1050800020F00300C0F58460B84201DD384604E03A
:10509000F01C20F00300C0F58460608100BF6189CE
:1050A0006068014404F58660814208D900BF69A3A5
:1050B0004FF480728DA176A0FBF7E2F800BF00BF2D
:1050C00000BFF01C20F00300C0F58460002808DC5D
:1050D00000BF60A340F2031291A16DA0FBF7D0F8CE
:1050E00000BF00BF0120E081A2466089A7EB000855
:1050F0005CE00920FFF7BCFD054655B900F0DEFD78
:10510000204600F04FFC002087E753E07EE07EE081
:105110008CE085F80C90002068732860CAF8005075
:1051200000BF4FF6FF70804508DB00BF49A34FF476
:105130008F7288A156A0FBF7A3F800BF00BFA5F8A7
:1051400008801FFA88F0B0F5846F02DA1FFA88F041
:1051500001E04FF48460688105F11000686000BFD1
:10516000287900F0030040B100BF3AA340F22312B7
:105170007DA147A0FBF784F800BF00BF00BF618995
:105180006068014404F58660814208D900BF31A3FC
:1051900040F2251255A13EA0FBF772F800BF00BFF8
:1051A0000120E8816889A8EB0008AA46B8F1000F41
:1051B0009FDC48E006F1130121F00302F91C21F005
:1051C0000301114488B2FFF72DFA04460CB9002000
:1051D00023E704F110003044C01C20F0030060609D
:1051E000278167810020206084F80C9000BF20791F
:1051F00000F0030040B100BF16A34FF49F7266A1F8
:1052000023A0FBF73DF800BF00BF1CE000BF082053
:10521000FFF72EFD04460CB90020FEE6002060607A
:1052200027816781206084F80C900CE000BF00BFEC
:1052300008A34FF4AA7263A115A0FBF721F800BFE1
:1052400000BF0020E9E600BF0120E081002060737C
:105250002046E2E62E2E5C6C7769702D312E342EBE
:10526000315C7372635C636F72655C706275662E2D
:1052700063000000706275665F616C6C6F633A205A
:105280006261642070627566206C617965720000ED
:10529000417373657274696F6E20222573222066D4
:1052A00061696C6564206174206C696E6520256499
:1052B00020696E2025730D0A00000000706275667B
:1052C0005F616C6C6F633A207062756620702D3E72
:1052D0007061796C6F61642070726F7065726C7947
:1052E00020616C69676E6564000000006368656337
:1052F0006B20702D3E7061796C6F6164202B207083
:105300002D3E6C656E20646F6573206E6F74206F28
:10531000766572666C6F77207062756600000000BB
:10532000504255465F504F4F4C5F42554653495A85
:1053300045206D75737420626520626967676572C8
:10534000207468616E204D454D5F414C49474E4D7C
:10535000454E540072656D5F6C656E203C206D613A
:10536000785F7531365F7400706275665F616C6C72
:105370006F633A207062756620712D3E7061796CA2
:105380006F61642070726F7065726C7920616C69F6
:10539000676E656400000000706275665F616C6C2A
:1053A0006F633A20706275662D3E7061796C6F6133
:1053B000642070726F7065726C7920616C69676EC1
:1053C00065640000706275665F616C6C6F633A20A3
:1053D0006572726F6E656F75732074797065000009
:1053E0002DE9F04707460E4690461C46DDE9089A2F
:1053F00037B1012F06D0022F06D0032F08D105E0C8
:10540000362513E0222511E00E250FE000250DE0E2
:1054100000BF00BF15A340F287121CA124A0FAF719
:105420002FFF00BF00BF0020BDE8F08700BFE81CD1
:1054300020F003003044504501DD0020F4E7002057
:105440002060B9F1000F05D0E81C20F003004844AB
:10545000606001E000206060022060732681668148
:1054600084F80C800120E0812046DDE72E2E5C6C64
:105470007769702D312E342E315C7372635C636FEB
:1054800072655C706275662E6300000070627566FE
:105490005F616C6C6F6365645F637573746F6D3AA5
:1054A000206261642070627566206C6179657200AB
:1054B000417373657274696F6E20222573222066B2
:1054C00061696C6564206174206C696E6520256477
:1054D00020696E2025730D0A0000000070B5064695
:1054E0000D4600BF0EB1002D09D100BF1BA340F235
:1054F000ED2222A12FA0FAF7C3FE00BF70BD00BFAE
:10550000344604E0208929890844208124682068E1
:105510000028F7D100BF20896189884208D000BFE8
:105520000EA340F2F6222EA122A0FAF7A9FE00BF98
:1055300000BF00BF206840B100BF08A340F2F722BF
:1055400033A11CA0FAF79CFE00BF00BF2089298967
:1055500008442081256000BFD0E700002E2E5C6C3F
:105560007769702D312E342E315C7372635C636FFA
:1055700072655C706275662E6300000028682021E9
:105580003D204E554C4C2920262620287420213DB4
:10559000204E554C4C29202870726F6772616D6DDA
:1055A00065722076696F6C6174657320415049297A
:1055B00000000000417373657274696F6E202225CC
:1055C0007322206661696C6564206174206C696E69
:1055D0006520256420696E2025730D0A00000000F7
:1055E000702D3E746F745F6C656E203D3D20702D94
:1055F0003E6C656E20286F66206C6173742070624B
:10560000756620696E20636861696E29000000007C
:10561000702D3E6E657874203D3D204E554C4C00FB
:105620000146002002E0421CD0B209680029FAD1EC
:10563000704700002DE9F04105460C460026002782
:1056400000BF25B11CB12889218988420CDA00BF2E
:1056500047A34FF457724EA159A0FAF711FE00BFAD
:105660006FF00D00BDE8F08100BF00BF6889801BAE
:105670006189C91B884204DB6089C01B1FFA80F85E
:1056800003E06889801B1FFA80F86268D1196A6894
:1056900090194246FAF794FF06EB080086B207EB32
:1056A000080087B200BF6889B04208DA00BF30A3A3
:1056B00040F26D324DA142A0FAF7E2FD00BF00BFFB
:1056C00000BF6089B84208DA00BF29A340F26E32F9
:1056D0004CA13BA0FAF7D4FD00BF00BF6089B842DF
:1056E00001DC002724686889B04211D100262D68AA
:1056F00000BF65B95CB100BF1DA34FF45E7248A145
:105700002FA0FAF7BDFD00BF6FF00D00AAE700BFA4
:10571000002C13D06089218988420FD100BF2068F6
:1057200058B100BF12A340F27D3241A124A0FAF784
:10573000A7FD00BF6FF0050094E700BF9DB1688929
:10574000298988420FD100BF286858B100BF08A33B
:1057500040F2823236A11AA0FAF792FD00BF6FF034
:1057600005007FE700BF002C80D100207AE7000011
:105770002E2E5C6C7769702D312E342E315C737255
:10578000635C636F72655C706275662E6300000017
:10579000706275665F636F70793A207461726765D5
:1057A00074206E6F742062696720656E6F7567681C
:1057B00020746F20686F6C6420736F75726365006E
:1057C000417373657274696F6E202225732220669F
:1057D00061696C6564206174206C696E6520256464
:1057E00020696E2025730D0A000000006F66667345
:1057F00065745F746F203C3D20705F746F2D3E6C4C
:10580000656E00006F66667365745F66726F6D200B
:105810003C3D20705F66726F6D2D3E6C656E0000C2
:10582000705F746F20213D204E554C4C00000000ED
:10583000706275665F636F7079282920646F657385
:10584000206E6F7420616C6C6F77207061636B6584
:105850007420717565756573210A00002DE9F05F8C
:105860008046894616461D464FF0000B00BFB8F132
:10587000000F0BD100BF27A340F29D322DA135A010
:10588000FAF7FEFC00BF0020BDE8F09F00BF00BF9C
:10589000B9F1000F0AD100BF1EA340F29E3238A119
:1058A0002CA0FAF7EDFC00BF0020EDE700BF4FF0A1
:1058B000000AB8F1000F02D0B9F1000F01D10020A9
:1058C000E2E7444620E035B16089A84203DC608904
:1058D000281A85B217E06089401B87B2B74200DD05
:1058E00037466268511909EB0A003A46FAF768FE32
:1058F0000BEB07001FFA80FB0AEB07001FFA80FA88
:10590000F01B86B2002524680EB1002CDBD158466E
:10591000BAE700002E2E5C6C7769702D312E342E84
:10592000315C7372635C636F72655C706275662E66
:1059300063000000706275665F636F70795F70610D
:10594000727469616C3A20696E76616C6964206278
:1059500075660000417373657274696F6E2022254D
:105960007322206661696C6564206174206C696EC5
:105970006520256420696E2025730D0A0000000053
:10598000706275665F636F70795F70617274696170
:105990006C3A20696E76616C696420646174617030
:1059A000747200002DE9F047044674B900BF44B991
:1059B00000BF39A340F271223FA142A0FAF760FC78
:1059C00000BF00BF0020BDE8F08700BF207B88B18A
:1059D000207B01280ED0207B02280BD0207B0328BF
:1059E00008D000BF2CA340F27B2241A135A0FAF7DA
:1059F00047FC00BF00BF00264AE000BFE089002846
:105A000008DC00BF24A340F28A223FA12DA0FAF7B0
:105A100037FC00BF00BFE089401E1FFA80F8A4F8E1
:105A20000E80B8F1000F31D12768257B607B00F034
:105A30000200002813D0A14600BFD9F8100040B9D9
:105A400000BF15A34FF4267235A11EA0FAF718FC6B
:105A500000BF00BF2046D9F81010884712E0032D80
:105A600004D121460920FFF74FF80BE0012D01D0AA
:105A7000022D04D121460820FFF746F802E0204617
:105A8000FEF7E6FC701CC6B23C4600E0002400BFF6
:105A9000002CB2D1304696E72E2E5C6C7769702DC3
:105AA000312E342E315C7372635C636F72655C708F
:105AB0006275662E630000007020213D204E554C1B
:105AC0004C000000417373657274696F6E2022256B
:105AD0007322206661696C6564206174206C696E54
